:020000022000DC
:0200000005C138
:1001F4000D94C7080D94F50825C040E04BBFF801E5
:1002040058ED54BF20830895FF24F8BE0091780070
:1002140005FD16C0F092A00608E10093B0060FEFAA
:100224000A950023E9F70091A80600FFE5CFE0E076
:10023400F0E0079116910F3F19F41F3F09F4DCCF4A
:100244000D942F010FE30DBF01E20EBFCAE0DBE303
:10025400E0E0EABF0F945F0BC1D0F092B0060C94BB
:1002640000004091CA01E12FFF270093CA010491C5
:100274004093CA0108954A951AF0000F111FFBCF4D
:100284000895AF93BF93D8013BBF29BF01900D924E
:10029400415050406040D1F7BF91AF910895FA9218
:1002A400EA92DA92CA92BA92AA929A928A927A922A
:1002B4006A925A924A92BA93AA939A938A93089505
:1002C400FF84EE84DD84CC84BB84AA8499848884EE
:1002D4007F806E805D804C80BB81AA8199818881FA
:1002E400F0E0EC0FFD1FEF0108953BB72BBFF801C1
:1002F4002091CA014093CA013DE930933400E89546
:100304002093CA013BBF08953091CF0137FDFCCF44
:100314003BB72BBFF8012091CA0113E21093CA0125
:100324000A01E8952093CA013BBF08950A011B0105
:10033400B901A801800191010D948E02E1E0EA93D4
:100344000D94A5020A01A901980180010D940002EF
:100354009A01AB010D9434020A01A90120E431E2AF
:10036400200D311D0D94310B0A01A90120E232E266
:10037400F7CF009190000093202200919100009308
:100384002122009192000093222200919300009375
:1003940023220895E0EDF1E030E03BBF008101FB52
:1003A40000E000F90F270895089530E00091CF018F
:1003B40007FDFBCF40E200E010E020E00F9477015E
:1003C4000F948A0201E00895F89420917900216045
:1003D40009E710E00F94FF00FFCFF6CF27E402EA0D
:1003E40010E00F94FF000F945B0378940F946D0852
:1003F4000F94A108FFCFE4E00D946E01B9010AD077
:10040400105F98018B010F94310BECEC52D0077FF5
:1004140000830895ECEC04D02081286020830895A3
:10042400F1E030E03BBF08950F945D01C801A22FB5
:10043400B091CA012DD012D007FDFDCF03E3009384
:10044400CA013093C2019093C1018093C001A0936B
:10045400C40105E327D0B093CA01CDCF30E00091A9
:10046400CF0108950F945B01D801C9012A0107C087
:10047400FC01D7DF2191CF018D01D6DF11968201D6
:100484002FEF420E521E012B99F7E6E00D946C01FA
:10049400EFEC0FD007FDFCCF008101FF02C006E3A3
:1004A40001D008950093CA0121E00BEC11E00D94F2
:1004B400FF00B6DF008108953093C2013093C1017B
:1004C40008959A938A93802F9091CA01E1DFC6DF41
:1004D40007FDFDCF03E30093CA0100E0EDDF0093C5
:1004E400C0018093C40103950032C8F39093CA01FC
:1004F400899199910895D6DF8093CA0189910895CD
:100504008A93ADDF07FDFDCF8091CA0100E3F3CFED
:1005140001D0F6CF0FEFD5CF1C0108018A01CB0122
:10052400A001622F0BC0FA016BBF2691F80179DF9D
:1005340021938F014F5F5F4F6F4F0197282F292B16
:1005440091F7C10108950F94510122977A014B014B
:10055400AA88280139011170802F952DD901801B9B
:10056400910BA040B04007C07ADF07FDFDCF45E204
:10057400002D0F947701082D092909F450C0BB24DC
:10058400CC24DD24D394AA2071F0FC01ABBF0791E5
:100594001691088319834881512F4F3F5F4F31F0E3
:1005A400BB24B39403C00FEF08830983082D0929E2
:1005B400B9F0481659066A067B0629F434D0088334
:1005C400082D092969F08C019D010F5F1F4F2F4FE2
:1005D4003F4F401651066206730611F424D0098376
:1005E400488159818C019D010F9486018E5F9F4F34
:1005F400AF4FBF4F0FEFC00ED01E0C2D0D2919F6B3
:100604008C019D010050124020403040BB20002E40
:1006140009F0AACF24DF07FDFDCF44E2A9CF22963B
:10062400E1E10D9462010FEF800E901E01E0400E97
:1006340000E0501E601E701EF7010BBF01917F0188
:1006440008953FB7F8940A9519F00A9559F02AC00D
:100654001830E6E56ED011F4016001C00E7F00830E
:10066400E8E61DC0E6E565D0097F0083183021F473
:1006740000810260008312C01F3F21F415D0008165
:100684000460F8CF143051F40FD01FB7F894E0E5AC
:100694000081046000831FBF06810683E0E60081B9
:1006A400016000833FBF089500E807870BEB008BD0
:1006B40008952497E0E7F0E007E01FEF30E03BBF48
:1006C40011930A95D1F725E001E410E051D01CE123
:1006D4002AD009831DE127D0088319810F3F1F4FBA
:1006E40021F400E413E208831983088119810A8341
:1006F4001B830A81009362000B810093630016D070
:10070400026000831FBFE1E5008101FFFCCF21E00F
:1007140000E42DD01FEF02E094DF08D00E7F0083A9
:100724001FBF2496089502E00D9433011FB7F89477
:10073400E0E5F0E0FBBF008108952FB7F894109531
:1007440004D0012300832FBF0895F0E0E02FE05987
:10075400FF4F30E03BBFEFCF063011F428E101C07A
:1007640020E0236004E403D010E400E0E6CF10E0CE
:100774000D94FF000F945D013CD12681222311F4D6
:1007840000E037C042815381DA0190E039BF6D91B6
:100794007C91DB01149639BF2C91021788F764838E
:1007A4007583DA014D915C91DA01129639BF2D916E
:1007B4003C91420F531F07C06C9104801580060EB4
:1007C400191E04821582A481B581A417B507C0F649
:1007D400119699BF2C911197243071F712962C9190
:1007E4001297021749F713962C911397121721F7B2
:1007F40001E0E4E00D946E018A93802F10E032D181
:1008040011F400E006C016D0038114812581CFD1F4
:1008140001E0899108958A93802F24D149F00AD068
:10082400008111812281C3D1002311F001E001C0B4
:1008340000E0EFCFE0912622F091272290D18BD1D6
:1008440022E0829F000D111DF8010081F181E02F4B
:100854000895AA9320D131F0A0E002C01AD1A39543
:10086400B1D1E0F300E000932A2201E010E07AD154
:100874001BBF00831183A99108950091B42A0F77B7
:100884000D94B8080091B42A002329F00A9541F088
:100894000A9519F126C024E030E00BEB11E21BC0ED
:1008A40025E00FEB11E240E050E0F801E40FF51F02
:1008B4005BBF608132E0439FF001E956FE4D6283E5
:1008C40053834395421780F3220F2E5F2093972181
:1008D40030E007E911E2B9D005C021E105EC11E2ED
:1008E400E2CF02C001E0089500E00895BA93AA930C
:1008F400A2EBBAE233D1628123810EE012E22A959F
:1009040029F02A95B9F02A9599F11BC0F801408184
:100914005181FA0120818A0198D0FD014BD1428591
:1009240053850417150710F40287138701E0A99172
:10093400B9910895F8014081F181E42F218962176A
:1009440010F000E0F4CFF80106D124E0629F7FD0DC
:100954004081F181E42F22813381F801042F118138
:1009640074D022E0FBD00085F185E02F2183D5CF20
:1009740089DF002391F6E5CF9A938A9382EB9AE27A
:10098400FC018CD021F000E08991999108950F9495
:10099400BB080023C1F3E0910E22F0910F22DFD0B7
:1009A4002189FC010281201770F353DFFC01D7D0A9
:1009B400028100932A2220912A22222311F401E0A9
:1009C400E3CF009110221091112234E0239F000DF7
:1009D400111D04501040C6D00283138380E009D057
:1009E4003AD068F710E0082F16DF002361F28395F0
:1009F400F6CFE4E2F2E2B3C00F945D010091B82AAD
:100A04001091B92A013020E0104011F000E01CC020
:100A1400A4E2B2E240D0D1F38091B62AFD012BBF0B
:100A24001AD0A0F710E0082F1DD081F3FD01C6D025
:100A3400829F0DD00ADFB8D000932B2221E030E052
:100A440017968D0102D001E0D4CE0D94BE08000D9E
:100A5400111DF80108950281F381E02FB9D08017A8
:100A640008950A2F87DE00230895AA938A93E2EB60
:100A7400FAE214D011F000E00AC00DD0E1F3A48131
:100A8400828107D00023B9F3182F0A2FC4DE89917D
:100A9400F2CE0A2FB1CE00912A22E5CF8BD0012BC2
:100AA4000895E2EBFAE25BD0008107FF2AC0468199
:100AB4005781042F052BA9F100810F71E1F4018105
:100AC400002329F0065061F0025059F02AC0423048
:100AD40000E0504009F0089522E004E212E209C067
:100AE40005CF413000E0504009F0089521E00AE2CA
:100AF40012E2ABDFF7CE0130A1F401810A3089F4B0
:100B04007BCF0F7111F501810A9599F0025049F0DC
:100B1400025029F0025029F00250B1F002C082D0F4
:100B240009F0E2CE0FE314E021E00487158726875D
:100B3400E1CF78D0B1F70FD00130104091F712D047
:100B440000810D7F0083D6CF17CF013051F701818B
:100B54000B3039F78ACF028113810895FD0130E00B
:100B64003BBF0895E4E2F2E208950F945E0193DF3F
:100B740011F400E016C0A091B62A24D0D0F710E0FA
:100B840070DFB9F3EFDF1AD0A29F61DF808191811A
:100B9400FC010AD0102F65DF61F3FC010BD0208526
:100BA40006D0E3E00D946F01018512852385F801D9
:100BB4002CBF1994D4DF0681178108950CD0CBDFA4
:100BC40022E00895E4E2F2E206D002D0A0170895EC
:100BD4003CDE04810895C3DF0281F38138CEE2EB69
:100BE400FAE200E00BBF02870387048705870687C4
:100BF4000787008B018B008107FF03C013D009F422
:100C040073CE0091B22A007621F44BDF002309F061
:100C140069CE0091B22A0F71013091F7A6DF00234B
:100C2400B9F7EECF068117813ACF5BD00F94BB01A1
:100C34000F94CC0100934A22DBC0089510D2A2EB9A
:100C4400BAE20091B22A0076003209F048C010914D
:100C5400B32A90E099BF0C9107FF18C0125049F0D5
:100C64001A95C9F526E030E006E312E298D101E0D6
:100C740037C04AD09BBF408D518D628D403059079B
:100C8400690749F1FA016CBF19952AC01A9521F038
:100C9400135009F526D0EBCFB2D0438D548D658D1A
:100CA40000E0D5D059F00F94D60109E816E021E010
:100CB400FD019BBF048715872687D9CF20E40CE468
:100CC40012E26DD100E916E021E0FD019BBF078728
:100CD400108B218BCCCF18D00FE09BBF8CD000E0C1
:100CE400A2C101C01AC100E01AD1E2EBFAE200E0AD
:100CF4000BBF0787008B018B04870587068704D009
:100D0400038F048F058F0895ECE2F2E2089577D003
:100D1400038D148D258DF8012CBF1994BA93AA93D1
:100D2400E0DFD8D000E0FD010BBF008F018F028F00
:100D340001E00F94D601F0914C22E0914D22E05055
:100D4400F14071F0E050F24069F0319769F0EF5FE3
:100D5400F04061F0339799F0E050F24001F121C086
:100D640029D020C04ED01EC066D01CC00F94D7011D
:100D7400002300E0B9F000934A2201E013C000917F
:100D84004E22002321F406EE11E021E003C00FEE11
:100D940011E021E00BD0038F148F258FEECF5BD0B1
:100DA40001C000E0A991B991089594D0FD0130E00B
:100DB4003BBF089524D0068D178D012309F0ABC0E5
:100DC40047815085618543D011F414D002C02ED0E0
:100DD40009F4A3C020E038E0E0D00CE318E021E0FF
:100DE400E2EBFAE2E4DF0787108B218B01C0D5D058
:100DF40001E0089503E002870AE00687089584DF8E
:100E0400D6CF14D019F01FD011F4F4DF86C0068DAC
:100E1400178D012321F00DE817E021E003C005EC54
:100E240017E021E0008F118F228FE2CF0EE412E24F
:100E34007CD000230895FADF19F005D011F4DADF2D
:100E44006CC0AFD0D5CFDBDF4481558166814030A3
:100E540050406040089503D1249700914F2210918F
:100E64004E22112319F01A95A9F031C0013140F036
:100E740008E0009336220AE000933A2200E028C0FA
:100E84002CD000E0ACE3B2E209BF0D930D930D93B7
:100E94000C931DC040E0488349834A834B830B83F2
:100EA400009150220A8316D048815981602F7B819A
:100EB40090E099BF0D911D912D913C91139740178E
:100EC400510762077307A0F6FD019BBFC0D001E084
:100ED4002496A9C0ACE2B2E20895033041F0023096
:100EE40031F0043021F0053011F011E001C010E0C0
:100EF40010934B2212E0019FF001EB58FE4D57DF97
:100F04000080F1810CE212E220E0E02D4AE050E0A2
:100F140060E00D94430103E002D000E008950093E3
:100F2400362202E000933A2208950F9459013DDFDE
:100F340062897389F8011080512D0180402DFD01D3
:100F4400008A118A628B738B1B01F8011280038063
:100F5400FD014080518062807380041415042604CE
:100F6400370420F008E047DF00E00AC0041A150A3D
:100F7400260A370A01E0000E131E231E331E56D024
:100F8400E8E00D946A013BDF2488358954D0222D92
:100F940063D035DF248935892ACF0CE812E20D9419
:100FA400BE085DD097DF02DF448955896689778959
:100FB400042F052B062B072BB1F1403008E0500716
:100FC4006040704010F4CA0102C080E098E00A0159
:100FD40026883788081A190A230A330A27D0392F92
:100FE4002AD0282F39D00CE812E208C0FD013BBFFB
:100FF40029D04F5F5F4F6F4F7F4F29D09C010197DE
:10100400232B89F2F801D3DE21918F012F3F71F355
:1010140005E00093362203E318E021E0FD013BBF25
:10102400008F118F228FE4E00D946E01048A158ADB
:10103400268A378A089506D0048115812681F8010D
:101044002CBF089540895189628973890895408B22
:10105400518B628B738B08950CE812E219940D94F2
:101064005D01CDDE4089018900938C2240938D225D
:1010740022E0BDCEF4DF99DE00881188228933890D
:1010840064897589002D0F7310E04CE852E2400F1B
:10109400511F800190E0179699BF0D901D902C90E0
:1010A400F0012CBE1995E2EBFAE29BBF9787908B77
:1010B400918B01E0B8CF1AE107D00093FA041BE149
:1010C40003D00093FB04089502E00F9433010F3F13
:1010D40009F40FE108958A9300E30F94AE030FB768
:1010E400F894802F20E050E0022F10E0F9D0F801AE
:1010F400E057F54D5BBF518B23952230A0F3DBDF26
:101104000091C0040093C004E0ECA4D20068008302
:1011140000810061008300EA1AE20683178353D139
:101124000FEF0583E8EC008101600083E0EC0081AF
:10113400006400838FBF8991089500E008951FB76C
:10114400F89400E46FD200E26DD283D20160008390
:10115400E9EC008102600083E8EC00810064008314
:10116400E9EC0081016000831FBF08950093C3046C
:1011740008950091C30408950093BA2A1093BB2ADA
:101184002093BC2A3093BD2A089567D000E008BF9D
:1011940032D2002331F5EBEC5DD204FF18C000E13C
:1011A40041D20F942B0400E00093C30420E430E008
:1011B40010E06CD020E430E010E000E867D00AECE6
:1011C4001AE20093A42A1093A52A65D10AC00081CB
:1011D40006FF02C000E404C0008105FF02C000E273
:1011E40021D21BD0189539D000E008BF1ED20023AD
:1011F40099F402E00093CC040091C50400E02CD0E3
:10120400F801E7D0008105FF04C000E01FD044D1FD
:1012140003C000E81BD0E0D0E4CF4CBEBBBFA9BFE5
:1012240098BF8FBF09911991299139914991599189
:10123400699179910990199029903990E991F991DE
:1012440089919991A991B9914990089505D0F8018E
:1012540002D20F7D0083089534C04A92BA93AA93B0
:101264009A938A93FA93EA933A922A921A920A9256
:101274007A936A935A934A933A932A931A930A93C2
:101284008FB798B7A9B7BBB74CB608958A932051C6
:10129400304041F02051304039F02052304031F09C
:1012A40080E005C081E003C082E001C083E0D4DFB8
:1012B40020E0F8012BBF218326E020838064818312
:1012C4003ACF60EA7AE2202F2F70220F402F440F8A
:1012D40000E010E0001F020F03D0060F171F08954F
:1012E40043E00D943D01E8ECF4E0B2DF00810F7DB2
:1012F4006CD1008D0260008F328F338F008D0F7D93
:10130400008F008D0F7B008F00890F7D008B00897B
:101314000F7B008BE2EBFAE2348735873687378719
:10132400308B318B32873387368B0895ACD00023D2
:1013340031F0033011F0043009F44ED1ACD00091F7
:10134400A22A1091A32A083050E01040A1F548E0E9
:101354002AEC3AE28D010F94310B3AD0008D0160F2
:10136400008F00890160008BE8ECF4E02CD02BD0D6
:101374000F94F105002311F411D11DC090E099BF21
:101384000C91FD019BBF07FF0CC002850F7319F47C
:1013940001E0078B01C0978B11D002E0068B1CD0B3
:1013A4000AC006811781012B11F401D104C006D0B3
:1013B40001E0068BC4D0E4E00D946E01928B938B14
:1013C400948B958B08950081006244CF0093C82AC2
:1013D400FDD030E03BBF089556D0033011F45AD00D
:1013E40051C0FD01F6DF42855385648975898A0100
:1013F400061B170B80E99AE2202F212B29F5078978
:10140400002311F4E6D03EC002891389040F151F8E
:10141400468157810417150720F08AD011F085D032
:1014240041F400E00093C92AFC010BBF028F038F33
:1014340025C08AD042851385042F242F2F7311F4DD
:1014440021E001C020E0278B013420E0120710F0D6
:1014540000E410E0FC01028F138FFD0140855185EB
:1014640064897589460F571FFC01448F558FFD0110
:1014740044895589400F511F448B558BFC01008DC5
:101484000D7F008F98CF0F945D01A2EBBAE200911B
:10149400C82A0895A1D027CFF6DF043011F4FADF6B
:1014A40043C08091A22A9091A32AFD0192DF04886F
:1014B4001588428553858001080F191F401751076D
:1014C40018F4CA0180199109AC012AEC3AE20085AA
:1014D4001185000D111D0F94310BFD017ADF048974
:1014E4001589080F191F048B158B048980349040CB
:1014F40031F435D0668177814617570750F002875B
:10150400138716D021F011D011F448D00DC04FD05C
:101514000BC0428553854017510729F409D0A9F31C
:1015240004D099F311D00BD046CF62D00023089594
:10153400478550896189403053076307089546D031
:1015440000890D7F008B0895FD0130E03BBF0489C5
:10155400158905D0428B538B348B358B0895428982
:101564005389400F511F089533DF008905FD08C0DA
:101574000091C82A013009F41AC0043009F410D0CB
:10158400089526DF008D05FD08C00091C82A0230A9
:1015940009F41FC0033009F403D0089505E016DFF1
:1015A400018D0460018F01890460018B089503E0BB
:1015B4000093C82A00E00093AA2A0093AB2A06D01D
:1015C4000BBF008D0D7F008F08950083E0E9FAE2E0
:1015D400089504E0FBDEB4CFE2EBFAE2FADE4485E0
:1015E4005585668540305307630709F001D0089597
:1015F400FA016CBF1994EBEC2DD002FF07C0F093F5
:10160400CA040091A82A06FDAFDF21C0008101FFB2
:1016140008C002E007D00091A02A06FFF6CFB1DF90
:10162400F4CF8BCD0093CA040895ECEC13D000FFE3
:1016340084CD01E0CADF00890F77008B008D0F771E
:10164400008F01E0EFDF00890F7E008B6FDE01E089
:101654000895E1ECF4E030E03BBF00810895BD0162
:10166400D801F90107C030E03BBF219139BF2D9368
:1016740041505040242F252BB1F7DB01089540E061
:1016840099BF4D9399B70150104020403040402FEE
:10169400412B422B432B99F708953BBF07913BB74E
:1016A40099BF0D9399B74150504060407040042F4A
:1016B400052B062B072B89F7089504E2402E07E13A
:1016C400502E02E0602EF201362D6BBE47915791E9
:1016D40067917691F201EC5FFF4F3F4F3BBFA791BB
:1016E400B7919691F201362DE95FFF4F3F4F3BBF13
:1016F400079117913691F801012B032B11F0CDDFDF
:1017040003C08A019B01BBDF0AE0400E00E0501ECB
:10171400601EA201662D483357416240A0F208952D
:10172400EA080000202200000000D200000040214E
:101734000038170201000000000200980101A00116
:101744000100080000A40101AA010103000000AE89
:10175400010100000004000000B6010100000000C7
:1017640000000000000000000043214D216B216BAC
:1017740021572161216B216B216B216B216B216B23
:10178400216B216B216B216B216B21000300000075
:101794000000000000000000000000000000000045
:1017A4000000000000000000000000000000000431
:1017B40003090441544D454C0044465520415458B6
:1017C4004D454741313238413155001706011F0656
:1017D400012006017406010012010002000000400D
:1017E400EB03ED2F010001020001090212000101C7
:1017F40000C032090400000000000000D721F621D7
:061804000822E4210A2283
:0400000320000000D9
:00000001FF
