:020000022000DC
:020000004CC0F2
:08007C000D94C8070D94F7076D
:10008C0040E04BBFF80158ED54BF20830895009118
:10009C00780005FD16C0F092400608E10093560664
:1000AC000FEF0A950023E9F70091480606FFA0C060
:1000BC00E0E0F0E0079116910F3F19F41F3F09F4AF
:1000CC0097C00D9472000FE30DBF01E20EBFCAEE94
:1000DC00DAE30F94230A54D0F092560600910020D4
:1000EC00109101200A3A154511F00C940000F09281
:1000FC000020F092012000E200937800F6CF4091AE
:10010C00CA01E12FFF270093CA0104914093CA0151
:10011C0008954A951AF0000F111FFBCF0895AF9365
:10012C00BF93D80101900D9241505040D9F7BF9127
:10013C00AF910895FA92EA92DA92CA92BA92AA927E
:10014C009A928A927A926A925A924A92BA93AA9301
:10015C009A938A930895FF84EE84DD84CC84BB84C7
:10016C00AA84998488847F806E805D804C80BB815A
:10017C00AA8199818881F0E0EC0FFD1FEF010895B1
:10018C0027E402EA10E00F9446000F94AC02789436
:10019C000F9470070F94A207FFCF3BB72BBFF8014A
:1001AC002091CA014093CA013DE930933400E8958F
:1001BC002093CA013BBF08953091CF0137FDFCCF8E
:1001CC003BB72BBFF8012091CA0113E21093CA016F
:0C01DC000A01E8952093CA013BBF08957A
:1001FC006ACF0A011B01B901A801800191010D947C
:10020C00E201E1E0EA930D94FC010A01A9019801D5
:10021C0080010D9459019A01AB010D9488010A01DA
:10022C00A90120E431E2200D311D0D94060A0A01CA
:10023C00A90120E132E2F7CFE0E1F2E20091900077
:10024C000083009191000183009192000283009140
:10025C00930003830895E0EDF1E0008101FB00E0E1
:10026C0000F90F27089508950091CF0107FDFCCFE9
:10027C0040E200E010E020E030E00F94D3000F9457
:10028C00DE0101E00895F8940AEA15E5E0E0F0E2F9
:10029C000083118320917900216009E710E00F940D
:1002AC004600FFCFF0CFB901EFECF1E0208127FD44
:1002BC00FBCF0BD0105F98018B010F94060AECEC6E
:1002CC00F1E00081077F00830895ECEC2081286029
:1002DC00208308950F94AC00C801A22FB091CA01DD
:1002EC0026D063D007FDFDCF4CD09093C1018093F5
:1002FC00C001A093C40105E325D0B093CA01E4E08A
:10030C000D94BD000F94AA00D801C9012A0106C0A2
:10031C00FC012191CF018D01DDDF119682012FEFC0
:10032C00420E521E012BA1F7E6E00D94BB00EFEC40
:10033C00F1E0008107FDFBCF008101FF02C006E365
:10034C0001D008950093CA0121E00BEC11E00D944B
:10035C0046009A938A93802F9091CA01E8DF25D0AA
:10036C0007FDFDCF0ED00093C1010093C001809317
:10037C00C40103950032C8F39093CA0189919991F5
:10038C00089503E30093CA0100E00093C2010895AD
:10039C00D9DF8093CA01899108958A9306D007FD0D
:1003AC00FDCF8091CA0100E3F3CF0091CF010895F6
:1003BC0001D0F3CF0FEFCDCF1C0108018A01CB0187
:1003CC00A001622F2091CF0127FDFCCF282F292BD4
:1003DC0059F0FA016BBF2691F80121938F014F5F01
:1003EC005F4F6F4F0197F2CFC10108950F94A0009A
:1003FC0022977A014B01AA8828013901912FD90142
:10040C0080E007C0D2DF07FDFDCF45E2002D0F9441
:10041C00D300082D092909F44EC0CC24C6DF07FDF2
:10042C00FDCF00E8B02EAA2071F0FC01ABBF079104
:10043C001691088319832881312F2F3F3F4F31F0BC
:10044C00CC24C39403C00FEF08830983082D09291A
:10045C00B9F0481659066A067B0629F430D0088391
:10046C00082D092969F08C019D010F5F1F4F2F4F3B
:10047C003F4F401651066206730611F420D00983D3
:10048C00488159818C019D010F94E2008E5F9F4F32
:10049C00AF4FBF4FBA9439F68C019D0100501140FB
:1004AC0020403040CC20002E09F0ACCF7EDF07FD81
:1004BC00FDCF44E2ABCF2296E1E10D94B1000FEFFA
:1004CC00800E901E01E0400E00E0501E601E701E5B
:1004DC00F70101917F0108953FB7F8940A9519F03F
:1004EC000A9561F02CC01830E6E5F0E0008111F4BB
:1004FC00016001C00E7F0083E8E61EC0E6E5F0E077
:10050C000081097F0083183021F400810260008390
:10051C0012C01F3F21F415D000810460F8CF1430B5
:10052C0051F40FD01FB7F894E0E50081046000830C
:10053C001FBF06810683E0E60081016000833FBF98
:10054C00089500E807870BEB008B08952497E0E7EC
:10055C00F0E007E01FEF11930A95E1F725E001E4C5
:10056C004DD01CE12AD009831DE127D008831981C5
:10057C000F3F1F4F21F400E413E208831983088115
:10058C0019810A831B830A81009362000B810093FB
:10059C00630016D0026000831FBFE1E5008101FFFC
:1005AC00FCCF21E000E42AD01FEF02E095DF08D059
:1005BC000E7F00831FBF2496089502E00D948500E2
:1005CC001FB7F894E0E5F0E0008108954FB7F89478
:1005DC00109504D0012300834FBF0895F0E0E02F65
:1005EC00E059FF4FF1CF063011F428E101C020E0B3
:1005FC00236004E403D010E400E0E8CF10E00D9495
:10060C0046000D0137D12681222311F400E033C0BE
:10061C0022813381D9014D915C91DA0114966C9150
:10062C000617A0F744835583D9012D913C91D9012C
:10063C0012964D915C91240F351F08C04C9150E0DF
:10064C0064817581640F751F64837583A481B58182
:10065C00A217B307D8F611964C911197443071F745
:10066C0012964C911297041749F713964C911397C5
:10067C00141721F701E0D001089543D0802F10E02A
:10068C00C6D111F400E006C015D003811481258178
:10069C00B9D101E02DC035D0802FB9D149F00AD0A5
:1006AC00008111812281AED1002311F001E001C043
:1006BC0000E01EC0A6E1B2E2ED91FC91A281B381F3
:1006CC0002E0809FA00DB11DED91FC91089519D011
:1006DC0012D039F080E003C0082FCFDF8395EED025
:1006EC00D8F300E000931A2201E010E00D931C9364
:1006FC00E4E00D94BD00A4E1B2E200911A220023C3
:10070C0008950D94AC000091942A0F770D94BA07BC
:10071C000091942A002329F00A9541F00A9511F1D1
:10072C0025C024E030E009EB11E21AC025E00DEB06
:10073C0011E240E050E0F801E40FF51F608132E077
:10074C00439FF001E956FE4D628353834395421754
:10075C0088F3220F2E5F2093972130E007E911E2F6
:10076C0046D005C020E103EC11E2E3CF02C001E06A
:10077C00089500E0089575D0FD01428123810AE0BF
:10078C0012E22A9529F02A9589F02A9531F112C0A6
:10079C0030D0208130E028D069D0228533850217F3
:1007AC00130710F40287138701E01BC022D02189A4
:1007BC00421710F000E0F9CFF801F4D024E0429F8A
:1007CC00000D111D16D0228133810ED022E0FD01C7
:1007DC000085F185E02F2183DFCF9ADF0023E1F63E
:1007EC00E9CFA991B9910895F801008111810D9477
:1007FC00C207F8012081F181E22F089532D036D062
:10080C00012B11F000E0EDCF0F94BD070023D1F3C5
:10081C00EAE0F2E24FD02189FD010281201790F32A
:10082C0056DFFD01028100931A2220911A22222305
:10083C0011F401E0E8CFEAE0F2E2B4D034E0239F17
:10084C00000D111D0450104015D002831383A0E03D
:10085C00E0D0A01770F710E049D0002399F2A395CF
:10086C00F7CFBA93AA93A2E9BAE20895FD010681E3
:10087C0017810895E4E1F2E2089543DF96D00681F2
:10088C0017810130104011F000E013C034DFE1F3A8
:10089C00848114D0C8F7B9D0B9F3FD01A6D00AD021
:1008AC00AED000931B2221E030E017968D019FDF24
:1008BC0001E01ECF0081F181E02F0895FD01ABD046
:1008CC0080170895AA938A9370D072D011F000E02B
:1008DC000AC013DFE1F3A48182810A2FCEDE00234C
:1008EC00B1F3182F03D08991A99108950A2FD3CE73
:1008FC005CD0008107FF2CC026813781022F032B8F
:10090C00B9F100810F71F1F40181002329F0065037
:10091C0069F0025061F02CC0223000E0304009F048
:10092C00089522E030E004E112E20AC024CF213025
:10093C0000E0304009F0089521E030E00AE112E2D5
:10094C0056DF15CF0130A1F401810A3089F495CF1F
:10095C000F7111F501810A9599F0025049F002507E
:10096C0029F0025029F00250B1F002C021D009F058
:10097C0000CF09E813E021E0048715872687E1CF33
:10098C0017D0B1F70FD00130104091F773DF008111
:10099C000D7F0083D6CF32CF013051F701810B3060
:1009AC0039F790CF028113810895E2E9FAE20895B4
:1009BC0006811781012B0895A4DE9FDE11F400E05F
:1009CC0013C08091962A25D08017C8F71ED0B9F392
:1009DC0051DF0BD0A081B181FD0111D0102F16D0A9
:1009EC0071F344DF20850ED083CE0281F381E02F9A
:1009FC00D9DF22E0829F000D111DF80108950185B9
:100A0C0012852385F8012CBF199410E0082FF9DD0D
:100A1C0076CEE4E1F2E20281F381E02F4BDF048138
:100A2C000895C3DF00E002870387048705870687E4
:100A3C000787008B018B008107FF03C0B9DF09F426
:100A4C0098CE0091922A007621F452DF002309F00F
:100A5C008ECE0091922A0F71013091F7ADDF0023F9
:100A6C00B9F7EECF5AD00F9422010F9431010093B5
:100A7C003A22D6C00895BA93AA93A2E9BAE2009199
:100A8C00922A0076003209F044C01091932A0C91FE
:100A9C0007FF18C0125049F01A95C1F526E030E056
:100AAC0006E212E284D101E035C01FD1408D518D98
:100ABC00628D00E040305007600741F1FA016CBFD5
:100ACC00199528C01A9521F0135001F526D0EBCFBB
:100ADC000CD1438D548D658D00E0D0D051F00F9426
:100AEC0039010CEA15E021E0FD0104871587268702
:100AFC00DACF20E430E00CE312E259D103EB15E03D
:100B0C0021E0FD010787108B218BCDCFEED00FE0BC
:100B1C008AD000E0A991B991089501C00AC11B2F98
:100B2C002A2FE3D000E0028702E00687A1EABAE2AE
:100B3C0000E00D930D930C9315970D930D930C935F
:100B4C00038F048F058FA22FB12F0895CED0038D64
:100B5C00148D258DF8012CBF19940F94AC00DDDF9A
:100B6C00ACE1B2E200E0FD01008F018F028F01E0E9
:100B7C000F943901ECE3F2E2908181818050914035
:100B8C0071F08050924069F0019769F08F5F90404E
:100B9C0061F0039799F080509240F9F020C023D077
:100BAC001FC045D01DC05DD01BC00F943A0100235F
:100BBC0000E0B1F000933A2201E012C00281002360
:100BCC0021F409E411E021E003C008E511E021E083
:100BDC00FD01038F148F258FEFCF54D001C000E09F
:100BEC00E4E00D94BD0081D0068D178D012309F032
:100BFC009AC047815085618541D011F413D002C051
:100C0C002BD009F496C020E038E0CFD002E417E0F6
:100C1C0021E0E2E9FAE20787108B218B01C0C5D0F5
:100C2C0001E0089503E002870AE00687089514D0D6
:100C3C0019F01FD011F4F6DF7CC0068D178D01233F
:100C4C0021F009E916E021E003C001ED16E021E0F6
:100C5C00008F118F228FE4CF0EE312E26CD00023B1
:100C6C000895FADF19F005D011F4DCDF62C0A1D0D1
:100C7C00D7CFECE1F2E2448155816681403050409F
:100C8C00604008952497ECE3F2E203811281112372
:100C9C0019F01A9581F026C0013128F026D008E011
:100CAC00C2DF00E020C024D000E01FD0008B018BFD
:100CBC00028B038B17C040E0488349834A834B83E4
:100CCC000B8304810A8311D0088119812A813B810D
:100CDC0040815181628173810417150726073707FC
:100CEC00E8F6AED001E024960895ECE1F2E2089526
:100CFC00033041F0023031F0043021F0053011F0B6
:100D0C0011E001C010E010933B2212E0019FF001B2
:100D1C00EB58FE4D6081F1810CE112E2E62F4AE0C6
:100D2C0050E00D94950003E00093262202E000931E
:100D3C002A2200E008950F94AB00ACE1B2E2FD0171
:100D4C0022893389F80150814180FD01408A518B01
:100D5C00F801128103810D901D902D903C901397FA
:100D6C00001511052205330540F008E000932622FA
:100D7C000AE000932A2200E00BC00419150B220B89
:100D8C00330B59D0FD01048B158B268B378B01E06F
:100D9C00E5E00D94BC00A9DF2488358959D0222DBB
:100DAC0054D0A3DF248935893ACF0CE712E20D9495
:100DBC00C2070F94AC00ACE1B2E2FD0104891589C5
:100DCC0026893789402F412B422B432B99F1003038
:100DDC0048E0140780E02040304010F4C80101C006
:100DEC0098E0A80166897789481B590B60407040D0
:100DFC00448B558B668B778B392F2AD0282F25D097
:100E0C004CE752E204C0FD0150D015D019D08C0132
:100E1C000197012B91F2FA010191AF010F3F99F368
:100E2C0005E00093262208E317E021E0FD01008F86
:100E3C00118F228FD5CE0F5F1F4F2F4F3F4F08952D
:100E4C00008B118B228B338B08950CE712E21994D3
:100E5C004089518962897389048115812681F80141
:100E6C002CBF089542DF0089418940937C22009376
:100E7C007D2222E030E0D3CE38DF17D0648975892B
:100E8C00402F4F73042E11244CE752E2400D511D9C
:100E9C00078010842184F0012CBE199500E0E2E952
:100EAC00FAE20787008B018BBBCE0089118922895E
:100EBC00338908951AE107D00093FA041BE103D09B
:100ECC000093FB04089502E00F9485000F3F09F492
:100EDC000FE108958A9300E30F94F9020FB7F89489
:100EEC00802F20E030E08901ECD0F801E458F54D7A
:100EFC00358323952230B0F3DDDF0091C0040093DD
:100F0C00C004E0EC6BD000680083008100610083BA
:100F1C0000E81AE2E6EC00831183E0EC44D10FEF19
:100F2C000583E8EC1ED0E0EC0081006400838FBFE9
:100F3C008991089500E008951FB7F89400E448D211
:100F4C0000E246D2E1ECF4E00CD0E9EC0081026066
:100F5C000083E8EC008100640083E9EC02D01FBF41
:100F6C0008950081016006C00093C30408950091A8
:100F7C00C304089500830895E7D1068F178F20A32B
:100F8C0031A3089560D00ED2002329F526D004FF9A
:100F9C0018C000E11DD20F946D0300E00093C30450
:100FAC0020E430E010E064D020E430E010E000E811
:100FBC005FD00AEA1AE20093842A1093852A43D15F
:100FCC000AC0008106FF02C000E404C0008105FFD6
:100FDC0002C000E2FDD11CD01895EBECF4E00081CE
:100FEC00089531D0F8D1002391F402E00093CC04A1
:100FFC000091C50400E026D0F801008105FF04C073
:10100C0000E01BD028D103C000E817D0CFD0E3CF2D
:10101C00ACBF9BBF8FBF099119912991399149910F
:10102C005991699179910990199029903990E99188
:10103C00F99189919991A991089504D0F8010081B1
:10104C000F7D98CF2FC0AA939A938A93FA93EA9321
:10105C003A922A921A920A927A936A935A934A93E0
:10106C003A932A931A930A938FB79BB7ACB7089508
:10107C008A932051304041F02051304039F02052B9
:10108C00304031F080E005C081E003C082E001C057
:10109C0083E0D8DF20E0F801218326E02083806400
:1010AC00818346CF60E87AE2202F2F70220F402FE9
:1010BC00440F00E010E0001F020F03D0060F171FB3
:1010CC00089543E00D948F00E8ECF4E0B8DFB7DF4F
:1010DC003BD104850260048700E010E00687078797
:1010EC0004850F7D048704850F7B048704810F7DA5
:1010FC00048304810F7B048312A313A314A315A3ED
:10110C0016A317A310A311A314A708959DD0002311
:10111C0031F0033011F0043009F439D194D0FD01D1
:10112C0006811781083050E01040A1F548E02AEA0A
:10113C003AE202E91AE20F94060AFD010485016005
:10114C000487048101600483E8ECF4E02CD02BD0FC
:10115C000F941705002311F4FAD01CC0FD01068969
:10116C0007FF0CC000A10F7311F401E001C000E0F7
:10117C0005A713D002E004A719D00CC0048D158D5F
:10118C00012B11F4EFD006C008D001E004A70481B4
:10119C000D7F0483A991B991089500E000A701A7E0
:1011AC0002A703A7089500810062E4CE4DD003305E
:1011BC0011F448D046C0FD0120A131A142A553A590
:1011CC008901041B150B402F412B19F505A5002394
:1011DC0011F4D2D036C000A511A5020F131F248D17
:1011EC00358D0217130720F090D011F07ED039F412
:1011FC0000E00093A92AFD01068707871FC078D05D
:10120C0020A111A1022F2F7311F421E001C020E0C5
:10121C0025A7013420E0120710F000E410E0068747
:10122C001787268D378D42A553A5240F351F208B8C
:10123C00318B9A01200F311F22A733A704850D7F14
:10124C000487A8CFA4D040CFBA93AA93ACE7BAE254
:10125C000091A82A08950F94AC00F8DF043011F423
:10126C00F1DF40C0FD018681978162A573A520A1A5
:10127C0031A18B01080F191F2017310718F4C90170
:10128C00861B970BAC012AEA3AE2068D178D060FE6
:10129C00171F0F94060AFD0102A513A5080F191FAD
:1012AC0002A713A78034904031F42AD0448D558D79
:1012BC002417350750F000A311A327D021F015D027
:1012CC0011F445D00FC04ED00DC020A131A1201774
:1012DC00310729F41AD0A9F308D099F309D0048165
:1012EC000D7F0483E4E00D94BD0059D000230895D4
:1012FC00FD0102A513A504D020A731A700E050CF13
:10130C0020A531A5200F311F089545A156A167A135
:10131C0000E0403050076007089535D005FD07C048
:10132C0004A5013009F41EC0043009F414D008954A
:10133C000BD0048505FD07C004A5023009F41CC0C0
:10134C00033009F408D00895ECE7FAE2089505E0BB
:10135C000093A82AF9DF05850460058705810460E0
:10136C0005830895F1DF03E004A700E006870787F3
:10137C0004850D7F0487089504E00093A82A03D008
:10138C000D7F04830895ECE7FAE204810895DCDF15
:10139C0042A153A164A1BCDF09F001D00895FA0168
:1013AC006CBF19941ADE02FF07C0F093CA040091B7
:1013BC00882A06FDB2DF22C0008101FF08C002E0CE
:1013CC0007D00091802A06FFF6CFB2DFF4CFB2CD62
:1013DC000093CA0408950091CC0400FFABCD01E04A
:1013EC000093CC04D0DF0F77048304850F77048738
:1013FC0001E0EEDF04810F7E048388DE01E00895B6
:10140C00BD01D801F90104C021912D9341505040E8
:10141C00242F252BC9F7DB01089520E008D0E9F72C
:10142C0008953BBF27913BB702D0D9F708952D9370
:10143C0001501040202F212B089506EA402E04E184
:10144C00502E02E0602EF201362D6BBE07911691E4
:10145C00F201EE5FFF4F3F4F3BBFA791B691F201F8
:10146C00362DEC5FFF4F3F4F3BBF47915791669135
:10147C00242F252B262B21F0FA01362FD2DF01C089
:10148C00CCDF07E0400E00E0501E601EA201662D6E
:10149C00443B54416240B8F20895DA08102200002F
:1014AC0000CE004021B4140201000000000200FF35
:1014BC000001070101000800000B010111010103EB
:1014CC00000000150101000000040000001D0101D6
:1014DC000000000000000000000000000043214D4F
:1014EC00216B216B21572161216B216B216B216BAE
:1014FC00216B216B216B216B216B216B216B2100EB
:10150C0003000000000000000000000000000000CC
:10151C0000000000000000000000000000000000BF
:10152C00000403090441544D454C004446552041E8
:10153C0054584D454741313238423100380501404D
:10154C000501410501940501120100020000004053
:10155C00EB03EA2F01000102000109021200010154
:10156C0000C032090400000000000000D421F22168
:06157C000422E02106221A
:0400000320000000D9
:00000001FF
